:020000040800F2
:10000000A004002001010008451C0008B11A0008E6
:10001000411C0008F1010008012300080000000055
:1000200000000000000000000000000001220008A5
:10003000F501000800000000B91C00085922000862
:100040001B0100081B0100081B0100081B01000820
:100050001B0100081B0100081B0100081B01000810
:100060001B0100081B0100081B0100081B01000800
:100070001B0100081B0100081B0100081B010008F0
:100080001B0100081B0100081B0100081B010008E0
:100090001B0100081B0100081B0100081B010008D0
:1000A0001B0100081B0100081B0100081B010008C0
:1000B0001B0100081B0100081B0100081B010008B0
:1000C0001B0100081B0100081B0100081B010008A0
:1000D0001B0100081B0100081B0100081B01000890
:1000E0001B0100081B0100081B010008DFF80CD0F1
:1000F00000F02AF8004800478D230008A0040020E3
:100100000648804706480047FEE7FEE7FEE7FEE7B1
:10011000FEE7FEE7FEE7FEE7FEE7FEE7FD2200085A
:10012000ED000008D2B201E000F8012B491EFBD21D
:1001300070470022F6E710B513460A4604461946F2
:10014000FFF7F0FF204610BD064C074D06E0E068C3
:1001500040F0010394E8070098471034AC42F6D30E
:10016000FFF7C8FF80240008A024000880B584B0F1
:10017000029000200190029800688068C007002863
:100180002FD0FFE702980068816821F001018160AB
:1001900000F024FC0190FFE7029800688068C00727
:1001A00000281DD0FFE700F019FC0199401A032830
:1001B00015D3FFE7029800688068C00700280DD0BB
:1001C000FFE70298816A41F0100181620298C16ADA
:1001D00041F00101C1620120039005E0FFE7DBE788
:1001E000FFE700200390FFE7039804B080BD000004
:1001F000FFE7FEE77047000081B0EFF3108072B6B2
:100200000090FFE7FEE7000085B003900291002018
:1002100001900090FFE70398406A012803D1FFE7AF
:1002200002200490C2E0039801214162FFE7FFE74A
:1002300002984068062813D8FFE703980068406BCF
:1002400002990A68496801EB810105391F238B4037
:10025000984302FA01F108430399096848632BE0C7
:10026000029840680C2813D8FFE703980068006BD9
:1002700002990A68496801EB810123391F238B40E9
:10028000984302FA01F1084303990968086312E0F0
:1002900003980068C06A02990A68496801EB810105
:1002A00041391F238B40984302FA01F10843039917
:1002B0000968C862FFE7FFE7029800680A2812D3BE
:1002C000FFE703980068C06802990A68896802EB32
:1002D00042021E3A072393409843914008430399F2
:1002E0000968C86010E003980068006902990A680C
:1002F000896802EB420207239340984391400843E8
:10030000039909680861FFE702980068102805D082
:10031000FFE702980068112840D1FFE703980068C2
:1003200042F20041C4F2010188422ED1FFE7039856
:10033000006880680002002826D4FFE70398006860
:10034000816841F4000181600298006810281AD188
:10035000FFE740F20000C2F2000000684DF6836142
:10036000C4F21B31A0FB0101890C01EB81014900A2
:100370000091FFE70098002804D0FFE700980138BB
:100380000090F7E7FFE7FFE707E00398816A41F095
:100390002001816201200190FFE7FFE7FFE703985A
:1003A00000214162FFE701980490FFE7049805B03F
:1003B0007047000080B588B006900020059004903A
:1003C000039002900698002803D1FFE701200790D0
:1003D000F1E006988068002807D0FFE7069840699A
:1003E000002801D0FFE7FFE7FFE70698806A0028B2
:1003F00009D1FFE706980021C1620698416206987C
:1004000000F0DCF8FFE70698FFF7B0FE05900698CD
:10041000806AC006002800F1C380FFE70598002825
:1004200040F0BE80FFE70698806A40F0020020F4AA
:1004300088500699886206984168C268C069084376
:1004400040EA42000399084303900698806801211E
:10045000B0F5807F019108D0FFE7069880680138E9
:10046000B0FA80F040090190FFE701980499C007B5
:1004700041F48072002818BF114604910698406923
:1004800001281FD1FFE70698C06800280ED1FFE7BA
:10049000069880694EF20001CFF6FF7101EB403003
:1004A0000499084340F4006004900AE00698816AC9
:1004B00041F0200181620698C16A41F00101C162E8
:1004C000FFE7FFE706980068406820F46940049958
:1004D00008430699096848600698006880684FF2EA
:1004E000FD71CFF6E1710840039908430699096848
:1004F0008860069880680121B0F5807F009108D05F
:10050000FFE7069880680138B0FA80F04009009053
:10051000FFE7009800F00100002818BF4FF480703A
:10052000B0F5807F09D1FFE7069800690021CFF67A
:10053000F07101EB00500290FFE706980068C06A76
:1005400020F470000299084306990968C862069869
:100550000068806840F6FE61CFF61F71084003997D
:1005600088420CD1FFE706980021C1620698806A94
:1005700040F0010020F00200069988620FE0069822
:10058000806A40F0100020F0020006998862069808
:10059000C16A41F00101C16201200590FFE707E057
:1005A0000698816A41F01001816201200590FFE701
:1005B00005980790FFE7079808B080BD80B588B020
:1005C000079000200690059004900390079800681B
:1005D00042F20041C4F2010188422AD1FFE7FFE75D
:1005E00041F21800C4F20200016841F40071016098
:1005F000006800F4007002900298FFE7FFE741F204
:100600001800C4F20200016841F0040101600068B2
:1006100000F0040001900198FFE7082003900320F8
:10062000049040F60000C4F2010003A900F026F88F
:10063000FFE708B080BD000080B584B0039000F0F3
:10064000CDF902900398019001980130002809D05B
:10065000FFE740F20400C2F200000068019908447C
:100660000190FFE7FFE700F0B9F90299401A0199FC
:10067000884201D2FFE7F6E704B080BD90B00F904A
:100680000E9100200D900990FFE70E9800680D99DB
:10069000C840002800F08781FFE70D98012101FA8A
:1006A00000F00C900E9800680C9908400B900B9885
:1006B0000C99884240F07381FFE70E98406800284B
:1006C000059051D0FFE7059801283AD0FFE705983B
:1006D00002283FD0FFE70598032860D0FFE7059880
:1006E000112832D0FFE70598122838D0FFE7002004
:1006F000C1F211000599814236D0FFE70020C1F216
:100700001200059981422FD0FFE70020C1F221009D
:100710000599814228D0FFE70020C1F22200059907
:10072000814221D0FFE70020C1F2310005998142CA
:100730001AD0FFE70020C1F232000599814213D0A0
:1007400030E00E98C06809902DE00E98C068043023
:10075000099028E00E98C0680830099023E00E98B0
:10076000C0680C3009901EE00E988068002803D104
:10077000FFE70420099011E00E988068012806D157
:10078000FFE7082009900C980F99086105E0082000
:1007900009900C980F994861FFE7FFE703E00020FC
:1007A000099000E0FFE70B98FF2803D8FFE70F98B8
:1007B000049003E00F9804300490FFE70498089039
:1007C0000B98FF2804D8FFE70D988000039006E0FF
:1007D0000D986FF01F0101EB80000390FFE7039875
:1007E00007900898006807990F228A409043099A59
:1007F00002FA01F10843089908600E98C079C00612
:10080000002840F1CB80FFE7FFE741F21800C4F277
:100810000200016841F001010160006800F0010080
:1008200006900698FFE70D9820F003000821C4F217
:10083000010140580A900D9800F0030080000F213C
:1008400001FA00F00A9921EA00000A900F9840F698
:100850000001C4F20101884203D1FFE700200290A9
:1008600026E00F9840F60041C4F20101884203D10E
:10087000FFE70120019018E00F9841F20001C4F257
:100880000101884203D1FFE7022000900AE00F989F
:1008900041F20041C4F201010422884208BF032250
:1008A0000092FFE700980190FFE701980290FFE7B0
:1008B00002980D9901F00301890088400A990843C4
:1008C0000A900A980D9921F003010822C4F201024E
:1008D00088500E988079C007002809D0FFE70B9850
:1008E00040F20041C4F201010A681043086009E0C7
:1008F0000B9840F20041C4F201010A6822EA0000AC
:100900000860FFE70E9880798007002809D5FFE787
:100910000B9840F20441C4F201010A6810430860D8
:1009200009E00B9840F20441C4F201010A6822EA8E
:1009300000000860FFE70E988079C006002809D5FE
:10094000FFE70B9840F20841C4F201010A68104326
:10095000086009E00B9840F20841C4F201010A68FE
:1009600022EA00000860FFE70E98807980060028E0
:1009700009D5FFE70B9840F20C41C4F201010A6867
:100980001043086009E00B9840F20C41C4F20101E9
:100990000A6822EA00000860FFE7FFE7FFE70D981A
:1009A00001300D9071E610B07047000083B00B4627
:1009B0000290ADF8061000920098002805D0FFE7DD
:1009C000BDF806000299086105E0BDF806000004C4
:1009D00002990861FFE703B07047000040F29C00F5
:1009E000C2F200000068704740F20400C2F200004A
:1009F000006840F29C01C2F200010A6810440860DD
:100A00007047000080B582B042F20000C4F20200DC
:100A1000016841F010010160032000F08FF8002010
:100A2000019000F007F8009000F03AF8019802B049
:100A300080BD000080B582B0009040F20000C2F29C
:100A40000000006840F20401C2F2000109684FF49E
:100A50007A72B2FBF1F1B0FBF1F001F021F800285D
:100A600003D0FFE70120019016E000980F280DD871
:100A7000FFE700994FF0FF30002200F043F80098A4
:100A800040F20801C2F20001086002E0012001907A
:100A900002E000200190FFE7019802B080BD000055
:100AA00083B0FFE741F21800C4F20200016841F090
:100AB00001010160006800F0010002900298FFE768
:100AC000FFE741F21C00C4F20200016841F08051CE
:100AD0000160006800F0805001900198FFE7FFE797
:100AE0000420C4F2010001680091009921F0E06146
:100AF0000091009941F00071009100990160FFE7B9
:100B000003B0704780B586B0059004910392002031
:100B1000029001F0F7FB029005980299049A039B5A
:100B20000190084611461A4601F08EF8019900908E
:100B30000846009901F0EEFB06B080BD80B582B09A
:100B40000190019801F004FC02B080BD80B586B030
:100B5000049000200390029004980078C0070028B9
:100B600000F0A980FFE70020019041F21C00C4F2D0
:100B700002000068C000002812D4FFE7FFE741F23E
:100B80001C00C4F20200016841F08051016000685D
:100B900000F0805000900098FFE701200190FFE7EF
:100BA00047F20000C4F200000068C005002821D40C
:100BB000FFE747F20000C4F20000016841F48071D1
:100BC0000160FFF70BFF0390FFE747F20000C4F25C
:100BD00000000068C00500280BD4FFE7FFF7FEFE09
:100BE0000399401A652803D3FFE70320059089E0A5
:100BF000EBE7FFE741F22000C4F20200006800F4D6
:100C000040700290029800283CD0FFE702980499B7
:100C1000496801F44071884234D0FFE741F2200076
:100C2000C4F20200016821F44071029140F2404197
:100C3000C4F2422101220A6000220A600299016086
:100C40009DF80800C00700281BD0FFE7FFF7C6FE8D
:100C50000390FFE741F22000C4F202000068800721
:100C600000280DD4FFE7FFF7B9FE0399401A41F2BF
:100C70008931884203D3FFE70320059042E0E9E78A
:100C8000FFE7FFE741F22000C4F20200016821F40F
:100C90004071049A5268114301600198012809D1FA
:100CA000FFE741F21C00C4F20200016821F080510C
:100CB0000160FFE7FFE704980078800700280CD563
:100CC000FFE741F20400C4F20200016821F4404150
:100CD000049A926811430160FFE704980078C00607
:100CE00000280CD5FFE741F20400C4F202000168BD
:100CF00021F48001049AD26811430160FFE70020CB
:100D00000590FFE7059806B080BD000080B584B06F
:100D1000029001910298002803D1FFE7012003907F
:100D200014E1019842F20001C4F20201096801F0E5
:100D30000701884215D9FFE742F20000C4F2020021
:100D4000016821F00701019A11430160006800F079
:100D500007000199884203D0FFE701200390F5E0E6
:100D6000FFE702980078800700282AD5FFE702985D
:100D700000784007002809D5FFE741F20400C4F2DB
:100D80000200016841F4E0610160FFE70298007829
:100D90000007002809D5FFE741F20400C4F2020071
:100DA000016841F460510160FFE741F20400C4F2C0
:100DB0000200016821F0F001029A9268114301607B
:100DC000FFE702980078C00700285CD0FFE7029890
:100DD000406801280DD1FFE741F20000C4F2020093
:100DE00000688003002803D4FFE701200390ADE0F2
:100DF0001FE00298406802280DD1FFE741F2000091
:100E0000C4F2020000688001002803D4FFE701203B
:100E100003909BE00CE041F20000C4F20200006885
:100E20008007002803D4FFE7012003908EE0FFE74E
:100E3000FFE741F20400C4F20200016821F003015F
:100E4000029A526811430160FFF7C8FD0090FFE766
:100E500041F20400C4F20200006800F00C000299A4
:100E60004968B0EB810F0DD0FFE7FFF7B7FD0099A0
:100E7000401A41F28931884203D3FFE703200390EF
:100E800064E0E5E7FFE7019842F20001C4F20201E5
:100E9000096801F00701884215D2FFE742F200001D
:100EA000C4F20200016821F00701019A11430160B8
:100EB000006800F007000199884203D0FFE7012095
:100EC000039043E0FFE702980078400700280CD524
:100ED000FFE741F20400C4F20200016821F4E0617E
:100EE000029AD26811430160FFE702980078000778
:100EF00000280DD5FFE741F20400C4F202000168AA
:100F000021F46051029A126941EAC2010160FFE7CF
:100F100000F020F841F20401C4F202010968C9B2EC
:100F2000090942F2FC32C0F60002515CC84040F2AE
:100F30000001C2F20001086040F20800C2F20000A5
:100F40000068FFF777FD00210391FFE7039804B0E5
:100F500080BD00008BB040F60E70C1F210000A9008
:100F600040F60A30C0F60C50099040F20670C0F608
:100F70000810089040F20230C0F20450079040F28E
:100F80000120ADF81A000020059004900390029013
:100F9000019041F20400C4F2020000680590059837
:100FA00000F00C000146002800913DD0FFE70098BA
:100FB000042804D0FFE70098082806D035E041F265
:100FC0000020C0F27A00019035E00598C0F383401C
:100FD00007A9085C02909DF81600C007002818D0E9
:100FE000FFE741F20400C4F20200006800F40030A0
:100FF0000DF11A0141EA504000780490029841F244
:101000000021C0F27A0148430499B0FBF1F003904B
:1010100007E0029840F60011C0F23D0148430390FA
:10102000FFE70398019006E0FFE741F20020C0F2DD
:101030007A000190FFE701980BB0704780B586B049
:1010400004900498002803D1FFE70120059020E3D5
:1010500004980078C007002800F0AE80FFE741F256
:101060000400C4F20200006800F00C00042813D051
:10107000FFE741F20400C4F20200006800F00C0037
:1010800008281BD1FFE741F20400C4F20200006807
:10109000C003002812D5FFE741F20000C4F20200AD
:1010A00000688003002808D5FFE7049840680028FE
:1010B00003D1FFE701200590EBE27CE0FFE7049815
:1010C0004068B0F5803F09D1FFE741F20000C4F26B
:1010D0000200016841F48031016033E00498406807
:1010E00000280DD1FFE741F20000C4F202000168C0
:1010F00021F480310160016821F48021016020E049
:1011000004984068B0F5A02F0DD1FFE741F2000030
:10111000C4F20200016841F480210160016841F4D9
:10112000803101600CE041F20000C4F2020001686D
:1011300021F480310160016821F480210160FFE722
:10114000FFE7FFE7FFE704984068002819D0FFE7B2
:10115000FFF744FC0390FFE741F20000C4F20200F5
:101160000068800300280BD4FFE7FFF737FC0399E2
:10117000401A652803D3FFE70320059089E2EBE7D7
:1011800018E0FFF72BFC0390FFE741F20000C4F2E8
:1011900002000068800300280BD5FFE7FFF71EFC64
:1011A0000399401A652803D3FFE70320059070E2F6
:1011B000EBE7FFE7FFE7FFE70498007880070028E8
:1011C00040F18B80FFE741F20400C4F202000068A6
:1011D00010F00C0F13D0FFE741F20400C4F202003C
:1011E000006800F00C00082828D1FFE741F2040055
:1011F000C4F202000068C00300281FD4FFE741F2D8
:101200000000C4F2020000688007002808D5FFE74C
:1012100004980069012803D0FFE70120059038E217
:1012200041F20000C4F20200016821F0F801049AC2
:10123000526941EAC2010160FFE74DE0049800698C
:1012400000282AD0FFE70020C4F2422001210160DB
:10125000FFF7C4FB0390FFE741F20000C4F2020075
:101260000068800700280BD4FFE7FFF7B7FB03995E
:10127000401A032803D3FFE70320059009E2EBE7B8
:1012800041F20000C4F20200016821F0F801049A62
:10129000526941EAC20101601DE00020C4F242200F
:1012A00000210160FFF79AFB0390FFE741F2000085
:1012B000C4F202000068800700280BD5FFE7FFF7A3
:1012C0008DFB0399401A032803D3FFE70320059001
:1012D000DFE1EBE7FFE7FFE7FFE7049800780007AF
:1012E000002847D5FFE704988069002822D0FFE74F
:1012F00040F28040C4F2422001210160FFF76EFB02
:101300000390FFE741F22400C4F202000068800766
:1013100000280BD4FFE7FFF761FB0399401A03286D
:1013200003D3FFE703200590B3E1EBE7012000F0D2
:10133000C5FC1EE040F28040C4F242200021016062
:10134000FFF74CFB0390FFE741F22400C4F20200D8
:101350000068800700280BD5FFE7FFF73FFB0399E4
:10136000401A032803D3FFE70320059091E1EBE740
:10137000FFE7FFE7049800784007002840F1D48099
:10138000FFE70020019041F21C00C4F20200006857
:10139000C000002812D4FFE7FFE741F21C00C4F2AE
:1013A0000200016841F080510160006800F0805047
:1013B00000900098FFE701200190FFE747F200004E
:1013C000C4F200000068C005002821D4FFE747F2FE
:1013D0000000C4F20000016841F480710160FFF771
:1013E000FDFA0390FFE747F20000C4F20000006836
:1013F000C00500280BD4FFE7FFF7F0FA0399401A65
:10140000652803D3FFE70320059042E1EBE7FFE700
:10141000FFE70498C068012809D1FFE741F22000E6
:10142000C4F20200016841F00101016032E0049859
:10143000C06800280DD1FFE741F22000C4F202008D
:10144000016821F001010160016821F004010160DF
:101450001FE00498C06805280DD1FFE741F2200085
:10146000C4F20200016841F004010160016841F02A
:10147000010101600CE041F22000C4F202000168A9
:1014800021F001010160016821F004010160FFE722
:10149000FFE7FFE7FFE70498C06800281BD0FFE7DD
:1014A000FFF79CFA0390FFE741F22000C4F202002C
:1014B0000068800700280DD4FFE7FFF78FFA039933
:1014C000401A41F28931884203D3FFE70320059097
:1014D000DFE0E9E71AE0FFF781FA0390FFE741F266
:1014E0002000C4F202000068800700280DD5FFE745
:1014F000FFF774FA0399401A41F28931884203D305
:10150000FFE703200590C4E0E9E7FFE70198012821
:1015100009D1FFE741F21C00C4F20200016821F08A
:1015200080510160FFE7FFE70498C069002800F0E0
:10153000AD80FFE741F20400C4F20200006800F051
:101540000C0008287ED0FFE70498C06902285AD111
:10155000FFE76020C4F2422000210160FFF73EFA5D
:101560000390FFE741F20000C4F20200006880012E
:1015700000280BD5FFE7FFF731FA0399401A03283B
:1015800003D3FFE70320059083E0EBE70498006AAC
:10159000B0F5803F0CD1FFE741F20400C4F2020035
:1015A000016821F40031049A926811430160FFE759
:1015B00041F20400C4F20200016821F47411049A9B
:1015C000136A526A1A43114301606020C4F2422038
:1015D00001210160FFF702FA0390FFE741F20000EA
:1015E000C4F202000068800100280BD4FFE7FFF777
:1015F000F5F90399401A032803D3FFE70320059068
:1016000047E0EBE71DE06020C4F2422000210160CA
:10161000FFF7E4F90390FFE741F20000C4F2020093
:101620000068800100280BD5FFE7FFF7D7F9039981
:10163000401A032803D3FFE70320059029E0EBE7D6
:10164000FFE722E00498C069012803D1FFE70120E9
:1016500005901EE041F20400C4F20200006802900E
:10166000029800F480300499096A884208D1FFE7A3
:10167000029800F470100499496A884203D0FFE789
:101680000120059005E0FFE7FFE7FFE70020059058
:10169000FFE7059806B080BD80B582B00090009845
:1016A000002803D1FFE70120019069E00098406A1B
:1016B00000280CD1FFE700984068B0F5827F01D187
:1016C000FFE703E000980021C161FFE705E0009813
:1016D0000021016100984161FFE7009800218162CB
:1016E0000098406D002807D1FFE7009800210165B0
:1016F000009800F049F8FFE7009802214165009842
:101700000068016821F040010160009801684268AA
:101710008368D0F80CC002F4827203F404431A44C4
:101720000CF400631A44036903F002031A4443698A
:1017300003F001031A44836903F400731A44C36974
:1017400003F038031A44036A03F080031A43806AE3
:1017500000F40050104308600098418B01F0040130
:101760000068416000980068C16921F40061C161AE
:101770000098002181650098012242650191FFE7F0
:10178000019802B080BD000080B58AB009900020A9
:1017900008900790069005900998006843F60001AC
:1017A000C4F20001884239D1FFE7FFE741F21C0093
:1017B000C4F20200016841F480410160006800F455
:1017C000804004900498FFE7FFE741F21800C4F25C
:1017D0000200016841F008010160006800F00800A3
:1017E00003900398FFE74FF42040059002200690F5
:1017F0000320089040F60040C4F2010005A90290C1
:101800000191FEF73BFF4FF48040059000200690C9
:10181000079002980199FEF731FFFFE70AB080BDFB
:1018200080B58AB0944608900791ADF81A200593C8
:1018300000200390FFE70898006D012803D1FFE71F
:101840000220099029E1089801210165FFE7FFE7DF
:10185000FFF7C4F80490BDF81A00ADF80A00089824
:10186000406D012803D0FFE7022003900AE10798AA
:10187000002805D0FFE7BDF81A00002803D1FFE7D4
:1018800001200390FEE0089803214165089800219B
:1018900081650798089A1063BDF81A00089A908627
:1018A000BDF81A00089AD086089881630898818745
:1018B0000898C1870898416408980164089880686E
:1018C000B0F5004F0DD1FFE708980068016821F0DE
:1018D0004001016008980068016841F4804101609E
:1018E000FFE708980068006800F04000402807D033
:1018F000FFE708980068016841F040010160FFE7D8
:101900000898C068B0F5006F4AD1FFE708984068B2
:10191000002805D0FFE7BDF80A0001280ED1FFE737
:1019200008980168006B0088C8600898016B023154
:1019300001630898C18E0139C186FFE7FFE7089867
:10194000C08E00282BD0FFE70898006880688007C9
:1019500000280ED5FFE708980168006B0088C86072
:101960000898016B023101630898C18E0139C18664
:1019700014E0FFF733F80499401A0599884205D31B
:10198000FFE705980130002804D1FFE705980028FB
:1019900003D1FFE70320039074E0FFE7CFE749E0BE
:1019A00008984068002805D0FFE7BDF80A00012824
:1019B0000ED1FFE708980168006B0078087308985B
:1019C000016B013101630898C18E0139C186FFE7BF
:1019D000FFE70898C08E00282BD0FFE70898006822
:1019E0008068800700280ED5FFE708980168006B23
:1019F000007808730898016B013101630898C18E63
:101A00000139C18614E0FEF7E9FF0499401A0599EF
:101A1000884205D3FFE705980130002804D1FFE78D
:101A20000598002803D1FFE7032003902AE0FFE791
:101A3000CFE7FFE708980599049A00F05DF90028C0
:101A400004D0FFE7089820218165FFE708988068A7
:101A500000280ED1FFE7FFE70020019008980068FA
:101A6000C068019008980068806801900198FFE7BD
:101A7000FFE70898806D002803D0FFE7012003905E
:101A8000FFE7FFE7089801214165FFE7089800217B
:101A90000165FFE703980990FFE709980AB080BD48
:101AA00080B582B00190019800F0ACFB02B080BD1F
:101AB000FFE7FEE780B584B000200390029001901C
:101AC00040F21001C2F2000142F20042C4F20102EF
:101AD0000A608860C86048614FF46022CA6148604B
:101AE000012008610846FEF765FC002803D0FFE7E7
:101AF000FEF782FBFFE70320019001200290002007
:101B0000039040F21000C2F2000001A9FEF77CFB36
:101B1000002803D0FFE7FEF76FFBFFE704B080BDAE
:101B200080B590B000200F900E900D900C90FFE7C4
:101B300041F21800C4F20200016841F02001016086
:101B4000006800F020000B900B98FFE7FFE741F2E0
:101B50001800C4F20200016841F00401016000684D
:101B600000F004000A900A98FFE7FFE741F218002E
:101B7000C4F20200016841F008010160006800F051
:101B8000080009900998FFE740F60000C4F2010040
:101B90004FF420710022089007910692FEF706FF8D
:101BA00040F60040C4F201004FF4C051059004918A
:101BB000069AFEF7FBFE07980C9001210D91069AFC
:101BC0000E9202230F930DF1300C08980391614699
:101BD0000293CDF804C0FEF751FD04980C900399D0
:101BE0000D91069A0E92029B0F9305980199FEF7AC
:101BF00045FD10B080BD000080B540F24000C2F24B
:101C0000000043F60001C4F2000101604FF482714C
:101C1000416000218160C160016141614FF4007247
:101C20008261C1610162416281620A21C162FFF782
:101C300033FD002803D0FFE7FEF7DEFAFFE780BDA3
:101C4000FFE7FEE7FFE7FEE788B007900691059201
:101C5000079800F0070004900498C0F107000528D9
:101C600003D3FFE70420019004E00498C0F10700CB
:101C70000190FFE70198039004980430062803D8E8
:101C8000FFE70020009003E0049803380090FFE78E
:101C90000098029006980399012202FA01F1013995
:101CA000084002998840059B02FA01F10139194068
:101CB000084308B0704700007047000082B00190F0
:101CC000019840F20001C2F200010968C90844F617
:101CD000D352C1F26202A1FB02129209504300905A
:101CE000FFE700BFFFE70098411E00910028F8D1F0
:101CF000FFE702B07047000080B586B00490039102
:101D000002920498039B02996A4611608021002286
:101D100000F012F8002808D0FFE70498816D41F028
:101D2000200181650320059002E000200590FFE777
:101D3000059806B080BD000080B58AB0DDF830C0DF
:101D400008900791069205930598CDF804C000907D
:101D5000FEF744FE0C99081A009908440390FEF718
:101D60003DFE0290039840F20001C2F200010968B2
:101D7000C1F3CB3148430490FFE7089800688068BE
:101D800007990840401AB0FA80F040090699884245
:101D90005CD0FFE705980130002856D0FFE7FEF73A
:101DA0001DFE0299401A0399884204D2FFE7039866
:101DB00000283FD1FFE708980068416821F0E00162
:101DC000416008984068B0F5827F13D1FFE708981A
:101DD0008068B0F5004F06D0FFE708988068B0F53E
:101DE000806F07D1FFE708980068016821F0400183
:101DF0000160FFE70898806AB0F5005F0FD1FFE748
:101E0000FFE708980068016821F400510160089814
:101E10000068016841F400510160FFE7FFE708989E
:101E200001214165FFE7089800210165FFE70320D4
:101E300009900EE00498002803D1FFE700200390EA
:101E4000FFE7049801380490FFE796E70020099027
:101E5000FFE709980AB080BD80B540F60000C4F2E3
:101E600001004FF400710122FEF7A0FD80BD0000CB
:101E700080B584B003900398411C039100788DF8DD
:101E80000B00FFE79DF80B00411E8DF80B1000289A
:101E900047D0FFE70398411C039100788DF80700B5
:101EA0009DF8070000F074F90398411C0391007835
:101EB0008DF80A009DF80A0000F08000ADF80800D7
:101EC0009DF80A0000F07F008DF80A009DF80A00D6
:101ED00000280BD0FFE703989DF80A1000F076F970
:101EE0009DF80A00039908440390FFE7BDF8080035
:101EF000002815D0FFE70398411C03910078ADF846
:101F00000800BDF80800FF2805D1FFE74FF4FA707C
:101F1000ADF80800FFE7BDF80800FEF78DFBFFE70E
:101F2000B0E704B080BD000070B584B0DDF820C01B
:101F30009E4614460D460646ADF80E00ADF80C1050
:101F4000ADF80A20ADF80830ADF806C0BDF80E00B7
:101F50007F2805DCFFE7BDF80C00A02801DBFFE7C8
:101F600076E0BDF80E00BDF80A100844013880285C
:101F700007DBFFE7BDF80E00C0F18000ADF80A00F6
:101F8000FFE7BDF80C00BDF8081008440138A02890
:101F900007DBFFE7BDF80C00C0F1A000ADF80800BA
:101FA000FFE700F09FF8BDF80E00BDF80A100144ED
:101FB0000139BDF80C20BDF808301344013BC9B20B
:101FC000DBB2C0B2D2B200911146009A00F096F88E
:101FD0009DF807008DF80400BDF806008DF8050097
:101FE00040F60040C4F201004FF400610122FEF708
:101FF000DDFCBDF80800ADF80C00FFE7BDF80C00F3
:10200000012822DBFFE7BDF80A00ADF80E00FFE76C
:10201000BDF80E00012811DBFFE740F24000C2F2DC
:10202000000001A902224FF0FF33FFF7F9FBFFE7A1
:10203000BDF80E000138ADF80E00E9E7FFE7BDF886
:102040000C000138ADF80C00D8E700F095F8FFE778
:1020500004B070BD80B584B00146ADF80E00BDF887
:102060000E006A46106000208022A0230290DDF856
:1020700008C001916146FFF757FF04B080BD000022
:1020800080B5FFF7E9FE00F02DF800F015F842F2F8
:102090000C40C0F60000FFF7EBFE42F24740C0F6EE
:1020A0000000FFF7E5FE42F25440C0F60000FFF7E3
:1020B000DFFE00F061F880BD80B582B040F6000020
:1020C000C4F201008021002201900091FEF76EFC15
:1020D0000520FEF7B1FA012201980099FEF766FC8F
:1020E00002B080BD80B540F60040C4F201004FF45C
:1020F00080510022FEF75AFC80BD0000B0B588B0C8
:102100009C4696460C4605468DF81F008DF81E101D
:102110008DF81D208DF81C302A20CDF814C0CDF884
:1021200010E00394029500F033F800208DF81800B9
:102130009DF81F108DF819108DF81A009DF81D00DC
:102140008DF81B0006A804210190009100F03EF8D4
:102150002B2000F01DF89DF81E008DF819009DF849
:102160001C008DF81B000198009900F02FF82C201E
:1021700000F00EF808B0B0BD80B540F60040C4F2E3
:1021800001004FF480510122FEF710FC80BD0000D9
:1021900080B582B001468DF8070040F60040C4F2D9
:1021A00001004FF400620023009111461A46FEF729
:1021B000FDFB40F24000C2F200000DF107010122D8
:1021C0004FF0FF33FFF72CFB02B080BD80B582B02B
:1021D0000190009140F60040C4F201004FF400610C
:1021E0000122FEF7E3FB0199BDF8002040F2400018
:1021F000C2F200004FF0FF33FFF712FB02B080BDC8
:102200007047000080B582B0009000980138B0F1AE
:10221000807F03D3FFE70120019019E00098013887
:102220004EF21401CEF2000108604FF0FF300F2192
:1022300000F070F84EF21800CEF2000000210160AC
:102240004EF21000CEF20000072202600191FFE77B
:10225000019802B080BD000080B5FEF7C5FB80BDCF
:1022600080B596B00CA828210290FDF762FF0020EF
:102270000B900A90099008900790069005900490A2
:10228000039001210C914FF480320D920E90109129
:102290000220139014924FF4E01015900298FEF76C
:1022A000CDFE002803D0FFE7FDF7A6FFFFE70F20D4
:1022B000079002200890002109914FF480620A9251
:1022C0000B9107A9019008460199FEF71FFD002810
:1022D00003D0FFE7FDF790FFFFE7022003904FF4E4
:1022E0004040059003A8FEF731FC002803D0FFE72B
:1022F000FDF782FFFFE716B080BD000070470000C9
:10230000FFE7FEE74EF60C50CEF200000068C0F387
:102310000220704782B0019000910198002809D4F2
:10232000FFE70098000101994EF20042CEF2000250
:1023300088540AE000980001019901F00F014EF65F
:102340001452CEF200028854FFE702B0704700003A
:1023500083B00290029800F0070000904EF60C50F7
:10236000CEF200000168019101994FF6FF02114081
:1023700001910199009A41EA02210022C0F2FA5229
:10238000114301910199016003B0704780B584B099
:1023900000200390FEF736FB0290FFF761FFFFF786
:1023A000BFFBFFF787FBFFF727FCFFF769FEFFE79F
:1023B0004FF47840FFF74EFE4FF4FA600190FEF7BD
:1023C0003BF94FF4FC60FFF745FE0198FEF734F946
:1023D0001F20FFF73FFE0198FEF72EF9E8E702E025
:1023E00008C8121F08C1002AFAD1704770470020A0
:1023F00001E001C1121F002AFBD17047000000005C
:102400000000000001020304060708090F0180967E
:102410001180FFB103012C2DB203012C2DB3060155
:102420002C2D012C2DB40107C003A20284C101C5CB
:10243000C2020A00C3028A2AC4028AEEC5010E2023
:10244000003601C03A0105022A040000007F2B0477
:102450000000007F04E010021C07123732292D29EA
:10246000252B3900010310E110031D07062E2C292E
:102470002D2E2E373F0000021013800A29806400A1
:10248000A02400080000002010000000DE23000847
:10249000B02400081000002090040000EE23000883
:1024A0000024F40001000000100000000000000003
:04000005080000ED02
:00000001FF
