:020000040800F2
:100000001005002001010008B92400086922000839
:10001000B5240008AD020008712B000800000000A4
:100020000000000000000000000000008928000817
:10003000B10200080000000029250008E12800089E
:100040001B0100081B0100081B0100081B01000820
:100050001B0100081B0100081B0100081B01000810
:100060001B0100081B0100081B0100081B01000800
:100070001B0100081B0100081B0100081B010008F0
:100080001B0100081B0100086D0100081B0100088E
:100090001B0100081B0100081B010008B502000835
:1000A0001B0100081B0100081B0100081B010008C0
:1000B0001B0100081B0100081B0100081B010008B0
:1000C0001B0100081B0100081B0100081B010008A0
:1000D0001B0100081B0100081B0100081B01000890
:1000E0001B0100081B0100081B010008DFF80CD0F1
:1000F00000F02AF800480047292C000810050020CD
:100100000648804706480047FEE7FEE7FEE7FEE7B1
:10011000FEE7FEE7FEE7FEE7FEE7FEE779290008D7
:10012000ED000008D2B201E000F8012B491EFBD21D
:1001300070470022F6E710B513460A4604461946F2
:10014000FFF7F0FF204610BD064C074D06E0E068C3
:1001500040F0010394E8070098471034AC42F6D30E
:10016000FFF7C8FF0C2D00082C2D000880B540F2C9
:100170001400C2F2000000F099F980BD80B584B08F
:10018000029000200190029800688068C00768B360
:10019000FFE702980168886820F00100886000F09D
:1001A00053FE0190FFE7029800688068C007E0B145
:1001B000FFE700F049FE0199401A032814D3FFE736
:1001C000029800688068C00768B1FFE70299886AF2
:1001D00040F0100088620299C86A40F00100C862CD
:1001E0000120039005E0FFE7DDE7FFE70020039033
:1001F000FFE7039804B080BD80B584B00290002072
:1002000001900090029800688068C007002847D1DC
:10021000FFE702980168886840F00100886040F2BA
:100220000000C2F2000000684DF68361C4F21B3189
:10023000A0FB0110800C0090FFE7009820B1FFE7C1
:10024000009801380090F8E700F0FEFD0190FFE70C
:10025000029800688068C00708BBFFE700F0F4FD63
:100260000199401A032819D3FFE7029800688068B3
:10027000C00790B9FFE70299886A40F010008862D1
:100280000299C86A40F00100C862FFE702990020A5
:100290004862FFE70120039005E0FFE7D8E7FFE7AA
:1002A00000200390FFE7039804B080BDFFE7FEE75E
:1002B0007047000080B5202000F004FC80BD0000E5
:1002C00081B0EFF3108072B60090FFE7FEE7000008
:1002D00081B0009001B0704785B00390029100207A
:1002E00001900090FFE70398406A012803D1FFE7DF
:1002F00002200490BEE0039901204862FFE7FFE777
:1003000002984068062812D8FFE703980068406BFF
:10031000029A1168526802EB8202053A1F23934049
:1003200098439140084303990968486329E002987B
:1003300040680C2812D8FFE703980068006B029A07
:100340001168526802EB8202233A1F2393409843BC
:100350009140084303990968086311E00398006815
:10036000C06A029A1168526802EB8202413A1F2366
:10037000934098439140084303990968C862FFE796
:10038000FFE7029800680A2812D3FFE70398006885
:10039000C06802990A68896802EB42021E3A072384
:1003A000934098439140084303990968C86010E05E
:1003B00003980068006902990A68896802EB4202A2
:1003C00007239340984391400843039909680861C3
:1003D000FFE702980068102805D0FFE70298006840
:1003E00011283FD1FFE70398006842F20041C4F2B0
:1003F000010188422DD1FFE7039800688068000260
:10040000002825D4FFE703980168886840F40000BD
:10041000886002980068102819D1FFE740F20000B8
:10042000C2F2000000684DF68361C4F21B31A0FBEC
:100430000110800C00EB800040000090FFE7009866
:1004400020B1FFE7009801380090F8E7FFE7FFE7E9
:1004500007E00399886A40F020008862012001903B
:10046000FFE7FFE7FFE7039900204862FFE70198F5
:100470000490FFE7049805B07047000080B582B093
:10048000019040F21400C2F2000000F007F840F2C0
:100490001001C2F20001086002B080BD81B000907E
:1004A00000980068C06C01B07047000080B582B051
:1004B00001900198006840688006002842D5FFE757
:1004C000019800680068800700283AD5FFE7019886
:1004D000806AC006002806D4FFE70199886A40F4C4
:1004E00000708862FFE701980068806800F460206F
:1004F000B0F5602F1CD1FFE70198C068C0B9FFE7D5
:1005000001980168486820F0200048600199886AD5
:1005100020F4807088620198806AC004002806D4A4
:10052000FFE70199886A40F001008862FFE7FFE772
:100530000198FFF7A3FF019801686FF012000860AF
:10054000FFE7FFE70198006840680006002852D5E1
:10055000FFE7019800680068400700284AD5FFE7D8
:100560000198806AC006002806D4FFE70199886ACE
:1005700040F400508862FFE701980068806800F44A
:10058000E040B0F5E04F14D0FFE701980068406804
:100590004005002825D4FFE701980068806800F432
:1005A0006020B0F5602F1CD1FFE70198C068C0B98A
:1005B000FFE701980168486820F0800048600199D1
:1005C000886A20F4805088620198806AC0050028FB
:1005D00006D4FFE70199886A40F001008862FFE7CE
:1005E000FFE70198FFF774FE019801686FF00C00B7
:1005F0000860FFE7FFE701980068406840060028B0
:1006000015D5FFE7019800680068C00770B1FFE7E3
:100610000199886A40F480308862019800F00AF9F4
:10062000019801686FF001000860FFE7FFE702B082
:1006300080BD000080B588B0069000200590049031
:1006400003900290069818B9FFE701200790EDE0AB
:100650000698806830B1FFE70698406908B1FFE767
:10066000FFE7FFE70698806A48B9FFE70699002090
:10067000C86206994862069800F0E0F8FFE706981D
:10068000FFF77CFD05900698806AC006002800F1FF
:10069000C280FFE70598002840F0BD80FFE706987C
:1006A000806A40F0020020F4885006998862069A19
:1006B0005068D168D269104340EA41010398084369
:1006C0000390069881680120B1F5807F019008D0E1
:1006D000FFE7069880680138B0FA80F04009019081
:1006E000FFE701990498CA0740F48071002A18BFF7
:1006F000084604900698406901281ED1FFE7069835
:10070000C06870B9FFE7069881694EF20000CFF625
:10071000FF7000EB41300499084340F400600490FE
:100720000AE00699886A40F0200088620699C86A43
:1007300040F00100C862FFE7FFE7069800684068E4
:1007400020F46940049908430699096848600698AE
:10075000006880684FF2FD71CFF6E171084003999F
:100760000843069909688860069881680120B1F5F8
:10077000807F009008D0FFE7069880680138B0FAC3
:1007800080F040090090FFE7009800F00100002889
:1007900018BF4FF48070B0F5807F09D1FFE706984D
:1007A00001690020CFF6F07000EB01500290FFE7E6
:1007B00006980068C06A20F4700002990843069900
:1007C0000968C86206980068806840F6FE61CFF646
:1007D0001F710840039988420CD1FFE70699002059
:1007E000C8620698806A40F0010020F00200069975
:1007F00088620FE00698806A40F0100020F0020046
:10080000069988620699C86A40F00100C862012012
:100810000590FFE707E00699886A40F010008862BB
:1008200001200590FFE705980790FFE7079808B0BB
:1008300080BD000081B0009001B0704780B588B0E5
:100840000790002006900590049003900798006898
:1008500042F20041C4F20101884233D1FFE7FFE7D1
:1008600041F21800C4F20200016841F40071016015
:10087000006800F4007002900298FFE7FFE741F281
:100880001800C4F20200016841F004010160006830
:1008900000F0040001900198FFE708200390032076
:1008A000049040F60000C4F2010003A900F026F90C
:1008B000122000900022114600F05EFB009800F02C
:1008C00053FBFFE708B080BD80B584B002900020E4
:1008D0000190FFE70298406A012803D1FFE7022058
:1008E0000390C4E0029901204862FFE7FFE7029805
:1008F000FFF782FC01900198002840F0AF80FFE7ED
:100900000298806A40F4807040F601618843029941
:1009100088620298006842F60001C4F20101884230
:1009200009D1FFE742F20440C4F20100006810F46C
:10093000702F03D018E00020B0B9FFE70299886A51
:1009400020F4801088620298006840684005002802
:1009500009D5FFE70298806A40F4805020F40050E7
:1009600002998862FFE72CE00299886A40F48010BF
:1009700088620298006842F20041C4F20101884294
:1009800009D0FFE70298006842F60001C4F20101B5
:10099000884209D1FFE742F20440C4F20100006836
:1009A0004005002803D40BE0012048B9FFE7029876
:1009B000806A40F4805020F4005002998862FFE77A
:1009C000FFE70298806AC004002806D5FFE7029975
:1009D000C86A20F00600C86203E002990020C862DD
:1009E000FFE7FFE7029900204862FFE702980168ED
:1009F0006FF00200086002980168486840F020002B
:100A0000486002980068806800F46020B0F5602FAC
:100A10001CD1FFE70298006842F60001C4F2010110
:100A2000884209D1FFE742F20440C4F201000068A5
:100A300010F4702F03D009E0002038B9FFE70298C6
:100A40000168886840F4A000886006E002980168A8
:100A5000886840F480108860FFE705E0FFE70299AE
:100A600000204862FFE7FFE701980390FFE7039843
:100A700004B080BD80B584B0039000F0E5F9029029
:100A8000039801900198013048B1FFE740F204005B
:100A9000C2F200000168019808440190FFE7FFE7F7
:100AA00000F0D2F90299401A0199884201D2FFE779
:100AB000F6E704B080BD000081B0ADF8020001B0DF
:100AC0007047000080B582B0ADF8060040F21440D7
:100AD000C4F201000068BDF8061008420CD0FFE720
:100AE000BDF8060040F21441C4F201010860BDF8EF
:100AF0000600FFF7E1FFFFE702B080BD90B00F9066
:100B00000E9100200D900990FFE70E9800680D9956
:100B1000C840002800F07F81FFE70D990120884040
:100B20000C900E9800680C9908400B900B980C994B
:100B3000884240F06C81FFE70E98406805900028DD
:100B400051D0FFE7059801283AD0FFE70598022821
:100B50003FD0FFE7059803285FD0FFE705981128ED
:100B600032D0FFE70598122838D0FFE7059800211A
:100B7000C1F21101884236D0FFE705980021C1F289
:100B8000120188422FD0FFE705980021C1F2210110
:100B9000884228D0FFE705980021C1F2220188424F
:100BA00021D0FFE705980021C1F2310188421AD017
:100BB000FFE705980021C1F23201884213D02FE0EF
:100BC0000E98C06809902CE00E98C0680430099017
:100BD00027E00E98C0680830099022E00E98C0689F
:100BE0000C3009901DE00E98806818B9FFE70420CA
:100BF000099011E00E988068012806D1FFE70820CF
:100C000009900C980F99086105E0082009900C984C
:100C10000F994861FFE7FFE703E00020099000E03B
:100C2000FFE70B98FF2803D8FFE70F98049003E035
:100C30000F9804300490FFE7049808900B98FF2861
:100C400004D8FFE70D988000039006E00D996FF03F
:100C50001F0000EB81000390FFE7039807900898BE
:100C60000068079A0F2191408843099991400843F1
:100C7000089908600E98C079C006002840F1C68027
:100C8000FFE7FFE741F21800C4F20200016841F0FB
:100C900001010160006800F0010006900698FFE77E
:100CA0000D9820F003000821C4F2010140580A9079
:100CB0000D9800F0030081000F2000FA01F10A985E
:100CC00088430A900F9840F60001C4F2010188425F
:100CD00003D1FFE70020029026E00F9840F6004184
:100CE000C4F20101884203D1FFE70120019018E01E
:100CF0000F9841F20001C4F20101884203D1FFE7DD
:100D0000022000900AE00F9941F20042C4F2010271
:100D10000420914208BF03200090FFE70098019053
:100D2000FFE701980290FFE702980D9901F0030197
:100D3000890000FA01F10A9808430A900A980D996F
:100D400021F003010822C4F2010288500E98807934
:100D5000C00748B1FFE70B9A40F20041C4F201011D
:100D600008681043086008E00B9A40F20041C4F2A2
:100D70000101086890430860FFE70E9880798007BA
:100D8000002809D5FFE70B9A40F20441C4F20101A3
:100D900008681043086008E00B9A40F20441C4F26E
:100DA0000101086890430860FFE70E988079C0064B
:100DB000002809D5FFE70B9A40F20841C4F201016F
:100DC00008681043086008E00B9A40F20841C4F23A
:100DD0000101086890430860FFE70E98807980065B
:100DE000002809D5FFE70B9A40F20C41C4F201013B
:100DF00008681043086008E00B9A40F20C41C4F206
:100E00000101086890430860FFE7FFE7FFE70D98DE
:100E100001300D9079E610B07047000083B0029069
:100E2000ADF806100092009828B1FFE7BDF8060063
:100E30000299086105E0BDF8060000040299086106
:100E4000FFE703B07047000040F20810C2F2000054
:100E50000068704740F20400C2F20000026840F2ED
:100E60000811C2F2000108681044086070470000D1
:100E700080B582B042F20001C4F20201086840F07D
:100E800010000860032000F08FF80020019000F0AF
:100E900005F800F037F8019802B080BD80B582B047
:100EA000009040F20000C2F20000006840F204012D
:100EB000C2F200010A684FF47A71B1FBF2F1B0FBA3
:100EC000F1F001F005F818B1FFE70120019016E0FC
:100ED00000980F280DD8FFE700994FF0FF3000224F
:100EE00000F04AF8009840F20801C2F200010860E0
:100EF00002E00120019002E000200190FFE701984C
:100F000002B080BD83B0FFE741F21800C4F20200D6
:100F1000016841F001010160006800F001000290E9
:100F20000298FFE7FFE741F21C00C4F202000168EB
:100F300041F080510160006800F0805001900198FC
:100F4000FFE7FFE70421C4F2010108680090009860
:100F500020F0E0600090009840F000700090009851
:100F60000860FFE703B0704780B582B00190019838
:100F700001F000FE02B080BD80B586B005900491FE
:100F800003920020029001F00BFE02900598019060
:100F900002980499039A01F091FA0146019801F030
:100FA00007FE06B080BD000080B582B001900198B8
:100FB00001F01CFE02B080BD80B586B00490002018
:100FC0000390029004980078C007002800F0A780E2
:100FD000FFE70020019041F21C00C4F2020000680B
:100FE000C000002812D4FFE7FFE741F21C00C4F262
:100FF0000200016841F080510160006800F08050FB
:1010000000900098FFE701200190FFE747F2000001
:10101000C4F200000068C005002821D4FFE747F2B1
:101020000001C4F20001086840F480700860FFF716
:101030000BFF0390FFE747F20000C4F200000068D6
:10104000C00500280BD4FFE7FFF7FEFE0399401A06
:10105000652803D3FFE70320059087E0EBE7FFE770
:1010600041F22000C4F20200006800F440700290D7
:101070000298D8B3FFE702980499496801F44071D7
:10108000884233D0FFE741F22001C4F20201086830
:1010900020F44070029040F24042C4F2422201200B
:1010A000106000201060029808609DF80800C007DA
:1010B000D8B1FFE7FFF7C8FE0390FFE741F2200039
:1010C000C4F202000068800700280DD4FFE7FFF794
:1010D000BBFE0399401A41F28931884203D3FFE7EE
:1010E0000320059042E0E9E7FFE7FFE741F2200136
:1010F000C4F20201086820F44070049A5268104358
:1011000008600198012809D1FFE741F21C01C4F2EF
:101110000201086820F080500860FFE7FFE70498AC
:101120000078800700280CD5FFE741F20401C4F2E3
:101130000201086820F44040049A92681043086055
:10114000FFE704980078C00600280CD5FFE741F2BD
:101150000401C4F20201086820F48000049AD268F5
:1011600010430860FFE700200590FFE7059806B0F0
:1011700080BD000080B584B002900191029818B93A
:10118000FFE70120039014E1019842F20001C4F24C
:101190000201096801F00701884215D9FFE742F210
:1011A0000000C4F20200016821F00701019A114316
:1011B0000160006800F007000199884203D0FFE752
:1011C00001200390F5E0FFE70298007880070028EF
:1011D0002AD5FFE7029800784007002809D5FFE7E5
:1011E00041F20401C4F20201086840F4E0600860C2
:1011F000FFE7029800780007002809D5FFE741F2D1
:101200000401C4F20201086840F460500860FFE77E
:1012100041F20401C4F20201086820F0F000029AD1
:10122000926810430860FFE702980078C007002822
:101230005CD0FFE70298406801280DD1FFE741F23A
:101240000000C4F2020000688003002803D4FFE716
:1012500001200390ADE01FE00298406802280DD104
:10126000FFE741F20000C4F202000068800100289C
:1012700003D4FFE7012003909BE00CE041F2000063
:10128000C4F2020000688007002803D4FFE70120B1
:1012900003908EE0FFE7FFE741F20401C4F2020190
:1012A000086820F00300029A526810430860FFF7B4
:1012B000CBFD0090FFE741F20400C4F20200006899
:1012C00000F00C0002994968B0EB810F0DD0FFE7E8
:1012D000FFF7BAFD0099401A41F28931884203D3E1
:1012E000FFE70320039064E0E5E7FFE7019842F29F
:1012F0000001C4F20201096801F00701884215D219
:10130000FFE742F20000C4F20200016821F0070189
:10131000019A11430160006800F0070001998842BA
:1013200003D0FFE70120039043E0FFE70298007835
:10133000400700280CD5FFE741F20401C4F2020186
:10134000086820F4E060029AD26810430860FFE762
:1013500002980078000700280DD5FFE741F204014C
:10136000C4F20201086820F46050029A126940EA4F
:10137000C2000860FFE700F01FF841F20401C4F268
:1013800002010968C9B20A0942F68641C0F60001A5
:10139000895CC84040F20001C2F20001086040F2DE
:1013A0000800C2F200000068FFF778FD00200390FB
:1013B000FFE7039804B080BD8BB040F60E70C1F219
:1013C00010000A9040F60A30C0F60C50099040F226
:1013D0000670C0F60810089040F20230C0F20450C7
:1013E000079040F20120ADF81A000020059004900B
:1013F00003900290019041F20400C4F202000068E0
:101400000590059800F00C0001460091E0B3FFE75D
:101410000098042804D0FFE70098082806D034E09C
:1014200041F20020C0F27A00019034E00598C0F348
:10143000834107A8405C02909DF81600C007C0B128
:10144000FFE741F20400C4F20200006800F400313A
:101450000DF11A0040EA514000780490029841F2E0
:101460000021C0F27A0148430499B0FBF1F00390E7
:1014700007E0029840F60011C0F23D014843039096
:10148000FFE70398019006E0FFE741F20020C0F279
:101490007A000190FFE701980BB0704780B586B0E5
:1014A0000490049818B9FFE70120059019E3049807
:1014B0000078C007002800F0AB80FFE741F204008D
:1014C000C4F20200006800F00C00042813D0FFE70B
:1014D00041F20400C4F20200006800F00C00082889
:1014E0001AD1FFE741F20400C4F202000068C00311
:1014F000002811D5FFE741F20000C4F202000068A5
:101500008003002807D5FFE70498406818B9FFE773
:1015100001200590E5E27AE0FFE704984068B0F525
:10152000803F09D1FFE741F20001C4F202010868DF
:1015300040F48030086032E00498406868B9FFE702
:1015400041F20001C4F20201086820F48030086012
:10155000086820F48020086020E004984068B0F516
:10156000A02F0DD1FFE741F20001C4F2020108688B
:1015700040F480200860086840F4803008600CE087
:1015800041F20001C4F20201086820F480300860D2
:10159000086820F480200860FFE7FFE7FFE7FFE727
:1015A00004984068C8B1FFE7FFF74EFC0390FFE7DF
:1015B00041F20000C4F202000068800300280BD44E
:1015C000FFE7FFF741FC0399401A652803D3FFE7C3
:1015D0000320059085E2EBE718E0FFF735FC039068
:1015E000FFE741F20000C4F2020000688003002817
:1015F0000BD5FFE7FFF728FC0399401A652803D3B2
:10160000FFE7032005906CE2EBE7FFE7FFE7FFE76A
:10161000049800788007002840F18A80FFE741F2B3
:101620000400C4F20200006810F00C0F13D0FFE7B2
:1016300041F20400C4F20200006800F00C00082827
:1016400028D1FFE741F20400C4F202000068C003A1
:1016500000281FD4FFE741F20000C4F20200006836
:101660008007002808D5FFE704980069012803D007
:10167000FFE70120059034E241F20001C4F20201CB
:10168000086820F0F800049A526940EAC200086035
:10169000FFE74CE00498006950B3FFE70021C4F273
:1016A000422101200860FFF7CFFB0390FFE741F2E2
:1016B0000000C4F202000068800700280BD4FFE796
:1016C000FFF7C2FB0399401A032803D3FFE7032067
:1016D000059006E2EBE741F20001C4F2020108685E
:1016E00020F0F800049A526940EAC20008601DE048
:1016F0000021C4F2422100200860FFF7A5FB0390FF
:10170000FFE741F20000C4F20200006880070028F1
:101710000BD5FFE7FFF798FB0399401A032803D383
:10172000FFE703200590DCE1EBE7FFE7FFE7FFE7DA
:10173000049800780007002846D5FFE704988069E0
:1017400010B3FFE740F28041C4F24221012008605B
:10175000FFF77AFB0390FFE741F22400C4F2020096
:101760000068800700280BD4FFE7FFF76DFB0399A3
:10177000401A032803D3FFE703200590B1E1EBE70C
:10178000012000F0D3FE1EE040F28041C4F242216D
:1017900000200860FFF758FB0390FFE741F22400A8
:1017A000C4F202000068800700280BD5FFE7FFF7AE
:1017B0004BFB0399401A032803D3FFE7032005904E
:1017C0008FE1EBE7FFE7FFE7049800784007002888
:1017D00040F1D280FFE70020019041F21C00C4F2EA
:1017E00002000068C000002812D4FFE7FFE741F2C2
:1017F0001C00C4F20200016841F0805101600068E1
:1018000000F0805000900098FFE701200190FFE772
:1018100047F20000C4F200000068C005002821D48F
:10182000FFE747F20001C4F20001086840F480704D
:101830000860FFF709FB0390FFE747F20000C4F2DE
:1018400000000068C00500280BD4FFE7FFF7FCFA92
:101850000399401A652803D3FFE70320059040E170
:10186000EBE7FFE7FFE70498C068012809D1FFE72D
:1018700041F22001C4F20201086840F00100086052
:1018800031E00498C06868B9FFE741F22001C4F272
:101890000201086820F001000860086820F00400D8
:1018A00008601FE00498C06805280DD1FFE741F2E9
:1018B0002001C4F20201086840F0040008600868D2
:1018C00040F0010008600CE041F22001C4F2020186
:1018D000086820F001000860086820F00400086033
:1018E000FFE7FFE7FFE7FFE70498C068D8B1FFE72D
:1018F000FFF7AAFA0390FFE741F22000C4F20200CA
:101900000068800700280DD4FFE7FFF79DFA0399D0
:10191000401A41F28931884203D3FFE70320059042
:10192000DFE0E9E71AE0FFF78FFA0390FFE741F203
:101930002000C4F202000068800700280DD5FFE7F0
:10194000FFF782FA0399401A41F28931884203D3A2
:10195000FFE703200590C4E0E9E7FFE701980128CD
:1019600009D1FFE741F21C01C4F20201086820F02E
:1019700080500860FFE7FFE70498C069002800F086
:10198000AD80FFE741F20400C4F20200006800F0FD
:101990000C0008287ED0FFE70498C06902285AD1BD
:1019A000FFE76021C4F2422100200860FFF74CFAF3
:1019B0000390FFE741F20000C4F2020000688001DA
:1019C00000280BD5FFE7FFF73FFA0399401A0328D9
:1019D00003D3FFE70320059083E0EBE70498006A58
:1019E000B0F5803F0CD1FFE741F20401C4F20201DF
:1019F000086820F40030049A926810430860FFE7FA
:101A000041F20401C4F20201086820F47410049B3E
:101A10001A6A5B6A1A43104308606021C4F24221CB
:101A200001200860FFF710FA0390FFE741F2000081
:101A3000C4F202000068800100280BD4FFE7FFF722
:101A400003FA0399401A032803D3FFE70320059004
:101A500047E0EBE71DE06021C4F24221002008606E
:101A6000FFF7F2F90390FFE741F20000C4F2020031
:101A70000068800100280BD5FFE7FFF7E5F903991F
:101A8000401A032803D3FFE70320059029E0EBE782
:101A9000FFE722E00498C069012803D1FFE7012095
:101AA00005901EE041F20400C4F2020000680290BA
:101AB000029800F480300499096A884208D1FFE74F
:101AC000029800F470100499496A884203D0FFE735
:101AD0000120059005E0FFE7FFE7FFE70020059004
:101AE000FFE7059806B080BD80B584B002900298EB
:101AF00018B9FFE70120039068E00298406A60B9D6
:101B0000FFE702984068B0F5827F01D1FFE703E06C
:101B100002990020C861FFE705E0029900200861F2
:101B200002994861FFE70299002088620298406D9F
:101B300038B9FFE7029900200865029800F04AF8DA
:101B4000FFE702990220486502980168086820F0C2
:101B500040000860029A019211685068D2F808C0EB
:101B6000D36800F482700CF4044C604403F4006306
:101B70001844136903F002031844536903F0010386
:101B80001844936903F400731844D36903F03803CD
:101B90001844136A03F080031843926A02F4005257
:101BA000104308600299488B00F0040009684860FF
:101BB00002980168C86920F40060C8610299002099
:101BC0008865029A012151650390FFE7039804B0EC
:101BD00080BD000080B58AB0099000200890079071
:101BE000069005900998006843F60001C4F20001D0
:101BF000884239D1FFE7FFE741F21C00C4F202003E
:101C0000016841F480410160006800F48040049064
:101C10000498FFE7FFE741F21800C4F202000168F0
:101C200041F008010160006800F00800039003988B
:101C3000FFE74FF420400590022006900320089013
:101C400040F60040C4F20100019005A90291FEF7A0
:101C500055FF019802994FF48042059200220692A6
:101C60000792FEF74BFFFFE70AB080BD80B58AB050
:101C700008900791ADF81A20059300200390FFE724
:101C80000898006D012803D1FFE7022009901CE1AC
:101C9000089901200865FFE7FFE7FFF7D5F80490F2
:101CA000BDF81A00ADF80A000898406D012803D06D
:101CB000FFE702200390FDE0079820B1FFE7BDF8A1
:101CC0001A0018B9FFE701200390F3E008990320F8
:101CD00048650899002088650799089A1163BDF83E
:101CE0001A10089A9186BDF81A10089AD186089998
:101CF0008863089988870899C8870899486408996B
:101D0000086408988068B0F5004F0DD1FFE7089887
:101D10000168086820F040000860089801680868B9
:101D200040F480400860FFE708980068006800F011
:101D30004000402807D0FFE708980168086840F095
:101D400040000860FFE70898C068B0F5006F46D112
:101D5000FFE70898406828B1FFE7BDF80A000128AE
:101D60000ED1FFE708980168006B0088C8600899E9
:101D7000086B023008630899C88E0138C886FFE7EF
:101D8000FFE70898C08E48B3FFE7089800688068AE
:101D9000800700280ED5FFE708980168006B0088CF
:101DA000C8600899086B023008630899C88E01382A
:101DB000C88612E0FFF748F80499401A059988424E
:101DC00004D3FFE70598013018B9FFE7059818B963
:101DD000FFE7032003906DE0FFE7D2E745E00898B6
:101DE000406828B1FFE7BDF80A0001280ED1FFE7DF
:101DF00008980168006B007808730899086B013037
:101E000008630899C88E0138C886FFE7FFE708987D
:101E1000C08E48B3FFE708980068806880070028F4
:101E20000ED5FFE708980168006B007808730899E1
:101E3000086B013008630899C88E0138C88612E023
:101E4000FFF702F80499401A0599884204D3FFE786
:101E50000598013018B9FFE7059818B9FFE7032086
:101E6000039027E0FFE7D2E7FFE708980599049A77
:101E700000F07AFB20B1FFE7089920208865FFE792
:101E80000898806870B9FFE7FFE700200190089884
:101E90000068C06801900898006880680190019807
:101EA000FFE7FFE70898806D18B1FFE70120039076
:101EB000FFE7FFE7089901204865FFE70899002040
:101EC0000865FFE703980990FFE709980AB080BD0D
:101ED00080B582B00190019800F0D8FC02B080BDBE
:101EE00085B003900291FFE70398C06B012803D1EE
:101EF000FFE70220049056E003990120C863FFE742
:101F0000FFE7039902200864039800684068019085
:101F10000398006880680090019820F0700001909C
:101F20000298016801980843019001980399096893
:101F300048600398006842F60041C4F201018842FB
:101F400018D0FFE703980068B0F1804F12D0FFE788
:101F50000398006840F20041C4F20001884209D0B1
:101F6000FFE70398006840F60001C4F200018842D0
:101F70000ED1FFE7009820F08000009002984168A1
:101F80000098084300900098039909688860FFE76B
:101F9000039901200864FFE703990020C863FFE765
:101FA00000200490FFE7049805B0704780B582B028
:101FB0000090009818B9FFE70120019031E00098E7
:101FC000006C38B9FFE700990020C863009800F062
:101FD0002BF8FFE7009902200864009951F8040BE0
:101FE00000F0CCFC009901204866FFE70099012031
:101FF0004864009988640099C86400990865FFE7FF
:10200000FFE7009901204865009988650099C86537
:1020100000990866FFE700990120086400200190FC
:10202000FFE7019802B080BD82B00190019800687E
:1020300042F60041C4F20101884210D1FFE7FFE7F8
:1020400041F21800C4F20200016841F4006101602D
:10205000006800F4006000900098FFE7FFE702B01E
:102060007047000083B001900198006C012803D0F4
:10207000FFE7012002903FE00199022008640198E7
:10208000006842F60041C4F20101884218D0FFE71F
:1020900001980068B0F1804F12D0FFE70198006806
:1020A00040F20041C4F20001884209D0FFE70198E4
:1020B000006840F60001C4F20001884212D1FFE737
:1020C00001980068806800F00700009000980628DA
:1020D00007D0FFE701980168086840F00100086038
:1020E000FFE706E001980168086840F00100086019
:1020F000FFE700200290FFE7029803B0704700005E
:1021000080B586B004900391FFE70498C06B012866
:1021100003D1FFE702200590A2E004990120C863E3
:10212000FFE7FFE7049902200864049800688068CC
:102130000290029820F077000290029820F47F40ED
:1021400002900298049909688860039800680190D9
:10215000002872D0FFE7019810286ED0FFE70198A1
:1021600020286AD0FFE70198302866D0FFE7019861
:10217000402855D0FFE70198502837D0FFE7019855
:10218000602840D0FFE7019870280BD0FFE7019846
:10219000B0F5805F05D0FFE70198B0F5005F16D07D
:1021A00052E052E004980068039B5A689968DB6823
:1021B00000F05CFC0498006880680290029840F08F
:1021C0007700029002980499096888603DE00498BD
:1021D0000068039B5A689968DB6800F047FC049824
:1021E0000168886840F4804088602EE004980068A8
:1021F000039A5168D26800F069FC04980068502185
:1022000000F04EFC21E004980068039A5168D268FF
:1022100000F084FC04980068602100F041FC14E0A8
:1022200004980068039A5168D26800F04FFC049843
:102230000068402100F034FC07E00498006803992E
:10224000096800F02DFC00E0FFE704990120086414
:10225000FFE704990020C863FFE700200590FFE72F
:10226000059806B080BD0000FFE7FEE780B584B0AA
:10227000002203920292019240F21400C2F2000086
:10228000009042F20041C4F201010160826001212C
:10229000C16042614FF46023C36142600161FEF797
:1022A000C9F918B1FFE7FEF70BF8FFE7032001902B
:1022B000012002900020039040F21400C2F20000BE
:1022C00001A9FEF709F818B1FFE7FDF7F9FFFFE7ED
:1022D00004B080BD80B590B000200F900E900D909E
:1022E0000C90FFE741F21800C4F20200016841F0CF
:1022F00020010160006800F020000B900B98FFE7C0
:10230000FFE741F21800C4F20200016841F0040145
:102310000160006800F004000A900A98FFE7FFE7F8
:1023200041F21800C4F20200016841F008010160A6
:10233000006800F0080009900998FFE740F60000E7
:10234000C4F2010001904FF42C7100910022079219
:10235000FEF764FD079A40F60040C4F201000590C4
:1023600041F650010491FEF759FD009A0198079932
:102370000C92012202920D920E91022103910F9173
:102380000CA90691FEF7BAFBDDF808C0039A059880
:102390000699079BDDF810E0CDF830E0CDF834C0A9
:1023A0000E930F92FEF7AAFB05980699079A202331
:1023B0000C930023C1F211030D930E92FEF79EFBC6
:1023C000079A172008901146FEF7D6FD0898FEF7E9
:1023D000CBFD10B080BD000080B582B040F244005B
:1023E000C2F20000009043F60001C4F20001016057
:1023F0004FF482714160002101918160C1600161EF
:1024000041614FF400728261C16101624162816287
:102410000A21C162FFF768FB18B1FFE7FDF750FF23
:10242000FFE702B080BD000080B588B000210091B8
:1024300007910691059104910391029140F2A00049
:10244000C2F20000019042F60042C4F201020260B2
:1024500041F61F42426081604FF6FF72C260016127
:1024600041618161FFF7A2FD18B1FFE7FDF728FF89
:10247000FFE74FF48050049040F2A000C2F2000049
:1024800004A9FFF73DFE18B1FFE7FDF719FFFFE7CD
:1024900000200290039040F2A000C2F2000002A9C6
:1024A000FFF71EFD18B1FFE7FDF70AFFFFE708B0D1
:1024B00080BD0000FFE7FEE7FFE7FEE788B007907A
:1024C00006910592079800F0070004900498C0F167
:1024D0000700052803D3FFE70420019004E00498D7
:1024E000C0F107000190FFE70198039004980430C1
:1024F000062803D8FFE70020009003E00498033883
:102500000090FFE70098029006980399012202FAD2
:1025100001F101390840029B984005999A40013A1F
:102520001140084308B070477047000082B0019026
:10253000019840F20001C2F200010968C90844F69E
:10254000D352C1F26202A1FB0221890948430090E3
:10255000FFE700BFFFE70098411E00910028F8D177
:10256000FFE702B07047000080B586B00490039189
:1025700002920498039B02996A461160802100220E
:1025800000F010F840B1FFE70499886D40F020009A
:1025900088650320059002E000200590FFE705987C
:1025A00006B080BD80B58AB0DDF830C008900791D4
:1025B0000692059305980190FEF746FC02460198A5
:1025C0000C99891A08440390FEF73EFC0290039888
:1025D00040F20001C2F200010968C1F3CB31484367
:1025E0000490FFE708980068806807990840401A3F
:1025F000B0FA80F04009069988425BD0FFE7059861
:102600000130002855D0FFE7FEF71EFC0299401A62
:102610000399884204D2FFE7039800283FD1FFE7DF
:1026200008980168486820F0E00048600898406811
:10263000B0F5827F13D1FFE708988068B0F5004FAE
:1026400006D0FFE708988068B0F5806F07D1FFE7F4
:1026500008980168086820F040000860FFE70898C3
:10266000806AB0F5005F0FD1FFE7FFE708980168C7
:10267000086820F40050086008980168086840F471
:1026800000500860FFE7FFE7089901204865FFE771
:10269000089900200865FFE7032009900DE00498E1
:1026A00018B9FFE700200390FFE704980138049071
:1026B000FFE797E700200990FFE709980AB080BD7F
:1026C00080B540F60000C4F201004FF40071012211
:1026D000FEF7A4FB80BD000080B584B00390039892
:1026E000411C039100788DF80B00FFE79DF80B006B
:1026F000411E8DF80B10002845D0FFE70398411CC0
:10270000039100788DF807009DF8070000F088F825
:102710000398411C039100788DF80A009DF80A0087
:1027200000F08000ADF808009DF80A0000F07F007E
:102730008DF80A009DF80A0058B1FFE703989DF84C
:102740000A1000F087F89DF80A10039808440390D7
:10275000FFE7BDF80800A8B1FFE70398411C03910B
:102760000078ADF80800BDF80800FF2805D1FFE7A4
:102770004FF4FA70ADF80800FFE7BDF80800FEF767
:1027800079F9FFE7B2E704B080BD000080B5FFF73C
:1027900097FF00F02DF800F015F842F69640C0F6CD
:1027A0000000FFF799FF42F6D140C0F60000FFF7A6
:1027B00093FF42F6DE40C0F60000FFF78DFF00F009
:1027C00023F880BD80B582B040F60000C4F201005D
:1027D0000090802101910022FEF720FB0520FEF7EA
:1027E00049F9009801990122FEF718FB02B080BD5B
:1027F00080B540F60040C4F201004FF48051002241
:10280000FEF70CFB80BD000080B540F60040C4F22E
:1028100001004FF480510122FEF700FB80BD000053
:1028200080B582B08DF8070040F60040C4F2010088
:102830004FF400610022FEF7F1FA40F24400C2F2C8
:1028400000000DF1070101224FF0FF33FFF70EFAF0
:1028500002B080BD80B582B00190009140F600408A
:10286000C4F201004FF400610122FEF7D7FA01998A
:10287000BDF8002040F24400C2F200004FF0FF33E8
:10288000FFF7F4F902B080BD7047000080B582B058
:10289000009000980138B0F1807F03D3FFE701205A
:1028A000019019E0009801384EF21401CEF20001B7
:1028B00008604FF0FF300F2100F07AF94EF2180156
:1028C000CEF20001002008604EF21002CEF20002AB
:1028D000072111600190FFE7019802B080BD000060
:1028E00080B5FEF7B7FA80BD80B596B00CA8019010
:1028F0002821FDF71EFC0198002302930B930A93F5
:102900000993089307930693059304930393012275
:102910000C924FF480310D910E931092022213927B
:1029200014914FF4E0111591FEF7B8FD18B1FFE7CF
:10293000FDF7C6FCFFE70F20079002210891002059
:1029400009904FF480620A920B9007A8FEF712FCE0
:1029500018B1FFE7FDF7B4FCFFE7022003904FF446
:102960000040059003A8FEF727FB18B1FFE7FDF72D
:10297000A7FCFFE716B080BD7047000083B002904F
:102980000191029800680090029842F60041C4F25A
:102990000101884215D0FFE70298B0F1804F10D0B6
:1029A000FFE7029840F20041C4F20001884208D0DB
:1029B000FFE7029840F60001C4F2000188420AD104
:1029C000FFE7009820F0700000900198416800989F
:1029D00008430090FFE7029842F60041C4F201016B
:1029E000884215D0FFE70298B0F1804F10D0FFE782
:1029F000029840F20041C4F20001884208D0FFE78B
:102A0000029840F60001C4F2000188420AD1FFE7B3
:102A1000009820F4407000900198C1680098084325
:102A20000090FFE7009820F0800001994969084371
:102A30000090009802990860019880680299C86225
:102A40000198006802998862029842F60041C4F237
:102A50000101884205D1FFE70198006902990863E6
:102A6000FFE702990120486103B0704785B00490E8
:102A7000039102920193049880680090009820F4DA
:102A80007F40009003980299019A41EA0221014394
:102A900000980843009000980499886005B070473A
:102AA00083B002900191029880680090009820F015
:102AB0007000009001980099084340F007000090D2
:102AC00000980299886003B07047000085B00490B8
:102AD000039102920498006A00900499086A20F019
:102AE00001000862049880690190019820F0F000CC
:102AF00001900299019840EA01100190009820F09D
:102B00000A000090039900980843009001980499E6
:102B1000886100980499086205B0704785B00490F8
:102B2000039102920499086A20F010000862049848
:102B3000806901900498006A0090019820F4704028
:102B400001900299019840EA01300190009820F02C
:102B5000A00000900399009840EA011000900198AD
:102B60000499886100980499086205B070470000D4
:102B7000FFE7FEE781B00090009800280DD4FFE742
:102B8000009901F01F02012090404A094EF2001105
:102B9000CEF2000141F82200FFE701B070470000CB
:102BA0004EF60C50CEF200000068C0F302207047D1
:102BB00082B0019000910198002809D4FFE70098A5
:102BC000000101994EF20042CEF2000288540AE060
:102BD00000980001019901F00F014EF61452CEF257
:102BE00000028854FFE702B07047000083B00290F3
:102BF000029800F0070000904EF60C51CEF2000152
:102C00000868019001984FF6FF021040019001986A
:102C1000009A40EA02200022C0F2FA5210430190CA
:102C20000198086003B0704780B582B00020019021
:102C3000FEF71EF9FFF758FEFFF74CFBFFF716FBF8
:102C4000FFF7CAFBFFF7F0FBFFF7A0FD40F2A00083
:102C5000C2F20000FFF706FA40F21400C2F20000D0
:102C6000FDF732FEFFE7FEE702E008C8121F08C1C9
:102C7000002AFAD170477047002001E001C1121FFD
:102C8000002AFBD170470000000000000000010294
:102C90000304060708090F0180961180FFB10301A4
:102CA0002C2DB203012C2DB306012C2D012C2DB49B
:102CB0000107C003A20284C101C5C2020A00C30207
:102CC0008A2AC4028AEEC5010E20003601C03A01EC
:102CD00005022A040000007F2B040000007F04E0AE
:102CE00010021C07123732292D29252B3900010328
:102CF00010E110031D07062E2C292D2E2E373F0024
:102D000000021013800A298064000000302D0008A2
:102D10000000002010000000682C0008402D000872
:102D20001000002000050000782C000800000000C2
:102D30000024F4000100000010000000000000006A
:04000005080000ED02
:00000001FF
